S01D00006D6F645F736F6D5F657073695F6170665F6170705F332E73333711
S2140000000000082005020000310200003102000056
S214000010310200003102000031020000310200000F
S21400002031020000310200003102000031020000FF
S214000030310200003002000027E401003102000017
S214000040058501003185010065850100310200004B
S214000050F185010025860100518601007D8601009C
S214000060A9860100EDE00100DD8601001187010090
S21400007045870100BD40010079870100A587010082
S214000080D1870100FD8701002988010055880100FD
S21400009081880100AD880100E1880100310200007E
S2140000A015890100498901007D890100B189010097
S2140000B0E5890100198A01004D8A01008FFD0100C3
S2140000C0818A0100AD8A0100D98A0100058B0100F2
S2140000D0398B0100658B0100918B0100BD8B0100FF
S2140000E0E98B0100158C0100418C010031020000F3
S2140000F0310200006D8C0100A18C0100D58C01003E
S214000100018D01002D8D010041060000598D010072
S2140001108D8D0100C18D0100ED8D0100198E01004D
S2140001204D8E0100818E0100B58E0100E18E01002A
S2140001300D8F0100398F0100658F0100998F010036
S214000140CD8F0100019001003590010069900100FB
S21400015010B5054C237833B9044B13B10448AFF3FC
S21400016000800123237010BD50070020000000000F
S21400017080BE020008B5034B1BB103490348AFF32A
S214000180008008BD000000005407002080BE02006A
S214000190154B002B08BF134B9D46A3F5803A002154
S2140001A08B460F461348144A121A22F02AFB0F4BAE
S2140001B0002B00D098470E4B002B00D0984700200D
S2140001C0002104000D000D48002802D00C48AFF3B3
S2140001D0008022F0D7FA200029001FF0B7FE22F098
S2140001E0BDFA00BF00000800000008200000000064
S2140001F0000000005007002048BA0720000000005A
S21400020000000000064880470649074A074B9A4206
S214000210BEBF51F8040B42F8040BF8E7FFF7B8FF2F
S214000220950300008CBE020000000020500700204E
S214000230FEE700BF80B582B000AF00F025F878601A
S2140002400A4BD3F808311B0AC3F308033B603B682C
S21400025001337A68B2FBF3F37B60054A7B68136070
S2140002607B6818460837BD4680BD00BF00400E407C
S2140002700800002080B400AF024B1846BD465DF86B
S214000280047B704700A24A0480B483B000AF334BAF
S214000290D3F8943003F00703023B042B49D801A29D
S2140002A052F823F0C9020000C1020000B9020000A3
S2140002B029030000D1020000294B1B687B603CE04C
S2140002C04FF400437B6038E0264B1B687B6034E0CD
S2140002D0224B9B681B0C03F01F03073B072B1FD802
S2140002E001A252F823F000BF09030000210300001A
S2140002F021030000210300000F030000210300007B
S214000300150300001B030000174B7B600BE0174B28
S2140003107B6008E0164B7B6005E0164B7B6002E0D6
S21400032000237B6000BF08E0134B1B685B087B6004
S21400033003E0114B1B687B6000BF084BD3F800310D
S2140003401B0A03F01F0301337A68B2FBF3F3184667
S2140003500C37BD465DF8047B704700BF00400E407A
S21400036004000020000000200024F4000048E801FB
S214000370006CDC0280F0FA020C00002080B400AFB3
S214000380034B1B681846BD465DF8047B704700BFEC
S2140003900000002080B400AF074B084A9A60064B66
S2140003A0D3F88830044A43F47003C2F8883000BF9C
S2140003B0BD465DF8047B704700ED00E000000000DD
S2140003C080B400AF4FF400431846BD465DF8047B8A
S2140003D0704780B400AF4FF47A731846BD465DF898
S2140003E0047B704780B400AF034B1B681846BD46BD
S2140003F05DF8047B704700BF0400002080B483B023
S21400040000AF7860002318460C37BD465DF8047BC5
S214000410704780B483B000AF7860FEE780B483B0E6
S21400042000AF786039603B684FF400525A60002392
S21400043018460C37BD465DF8047B704780B483B021
S21400044000AF7860012318460C37BD465DF8047B84
S214000450704780B485B000AFF860B9607A6000235A
S21400046018461437BD465DF8047B704780B586B0E5
S21400047000AFF860B9607A6000237B610FE000F09F
S21400048099F938613B69B3F1FF3F0ED0BB685A1C3F
S214000490BA603A69D2B21A707B6901337B617B68B5
S2140004A05A1E7A60002BEAD100E000BF7B69002B61
S2140004B002DC4FF0FF3300E07B6918461837BD4674
S2140004C080BD000080B485B000AF78600B4B1B6821
S2140004D0002B02D1094B0A4A1A60084B1B68FB60C6
S2140004E0064B1A687B681344044A1360FB68184678
S2140004F01437BD465DF8047B704700BF6C070020CC
S21400050048BA072080B586B000AFF860B9607A6058
S21400051000237B6109E0BB685A1CBA601B7818464A
S21400052000F088F97B6901337B617A697B689A42BF
S214000530F1DB7B6818461837BD4680BD80B483B0B3
S21400054000AF0346FB7197F90730002B0BDBFB79F6
S21400055003F01F02074997F907305B09012000FAEC
S21400056002F241F8232000BF0C37BD465DF8047B3D
S214000570704700BF00E100E080B483B000AF0346E0
S214000580FB7197F90730002B0CDBFB7903F01F0299
S214000590074997F907305B09012000FA02F2603339
S2140005A041F8232000BF0C37BD465DF8047B70473A
S2140005B000E100E080B483B000AF786039607B680B
S2140005C03A689A6400BF0C37BD465DF8047B7047F6
S2140005D080B483B000AF786039607B68DA6C3B68C3
S2140005E0DB431A407B68DA6400BF0C37BD465DF813
S2140005F0047B704780B483B000AF786039607B6856
S214000600DA6C3B681A437B68DA6400BF0C37BD4679
S2140006105DF8047B7047000080B500AF04210248F7
S214000620FFF7D6FF00BF80BD0014014080B500AFC5
S21400063004210248FFF7DEFF00BF80BD0014014022
S21400064098B500AF144B1B6903F08003002B20D035
S214000650124B1B68072B1ADC114B1C680E480AF05D
S214000660CFFE03461A460F4B1A550D4B1B68013337
S2140006700B4A1360094B1B680133084A1360084B8A
S2140006801B68082B05D1064B00221A6001E0FFF715
S214000690C3FF00BF98BD00BF0014014078070020CC
S2140006A0740700207C07002080B483B000AF786019
S2140006B07B68002B03D0064B01221A7002E0044B25
S2140006C000221A7000BF0C37BD465DF8047B7047E9
S2140006D084070020B0B588B000AF01212E4807F08F
S2140006E09BFE01212D4807F097FE012304220821D6
S2140006F0042009F0A3FD012302220921042009F0A9
S2140007009DFD274BFB61274B3C461D460FCD0FC476
S21400071095E8070084E8070001230422042101204D
S21400072009F08CFD0121204807F076FE00233B707F
S2140007304FF46133BB603B461946F8690AF0CAFCC1
S214000740FB6903225A67FB699B6F23F4E06323F07F
S2140007500703FA69936704211148FFF72BFF32203D
S214000760FFF70AFF04210E48FFF744FF3220FFF789
S214000770E5FE0521F8690AF063FC0C4B1B689868D7
S21400078000230222002122F089FD094B01221A7063
S21400079000BF2037BD46B0BD4041050000550A00E9
S2140007A0001401403485020000C204001005002039
S2140007B08507002080B582B000AF4FF0FF337B6026
S2140007C0184B1B7883F00103DBB2002B01D0FFF738
S2140007D081FF09F095FA3860134B1B68002B18DD73
S2140007E0124B1B68124AD35CDBB27B600F4B1B6854
S2140007F001330E4A13600D4B1B68082B02D10B4BBE
S21400080000221A60084B1B68013B074A1360FFF77B
S2140008100DFF386809F084FA7B6818460837BD462D
S21400082080BD00BF850700207807002070070020E5
S2140008307C07002080B582B000AF0346FB710F4BEB
S2140008401B7883F00103DBB2002B01D0FFF742FFD9
S2140008500B4B1B78002B06D0FB790A2B03D10D21FE
S21400086008480AF0E1FDFB79194606480AF0DCFD67
S214000870FB7918460837BD4680BD00BF85070020B7
S214000880840700200014014080B400AF00BF054B71
S2140008901B6903F40053002BF9D000BFBD465DF87A
S2140008A0047B70470014014080B485B000AF7860C8
S2140008B07B6801331B78FB81FB891B021AB27B68BD
S2140008C01B781BB213431BB2FB81FB8918461437F7
S2140008D0BD465DF8047B704780B485B000AF786095
S2140008E07B6803331B78FB60FB681B027A68023266
S2140008F012781343FB60FB681B027A680132127899
S2140009001343FB60FB681B027A6812781343FB6094
S214000910FB6818461437BD465DF8047B70472DE922
S214000920900885B000AF78607B6807331B78DBB231
S2140009304FF00004C7E90234D7E902124FF0000B6B
S2140009404FF0000C4FEA022C4CEA116C4FEA012BD8
S2140009507A6806321278D1B24FF000024BEA0103F1
S2140009604CEA0204C7E90234D7E902124FF0000B42
S2140009704FF0000C4FEA022C4CEA116C4FEA012BA8
S2140009807A6805321278D1B24FF000024BEA0103C2
S2140009904CEA0204C7E90234D7E902124FF0000B12
S2140009A04FF0000C4FEA022C4CEA116C4FEA012B78
S2140009B07A6804321278D1B24FF000024BEA010393
S2140009C04CEA0204C7E90234D7E902124FF0000BE2
S2140009D04FF0000C4FEA022C4CEA116C4FEA012B48
S2140009E07A6803321278D1B24FF000024BEA010364
S2140009F04CEA0204C7E90234D7E902124FF0000BB2
S214000A004FF0000C4FEA022C4CEA116C4FEA012B17
S214000A107A6802321278D1B24FF000024BEA010334
S214000A204CEA0204C7E90234D7E902124FF0000B81
S214000A304FF0000C4FEA022C4CEA116C4FEA012BE7
S214000A407A6801321278D1B24FF000024BEA010305
S214000A504CEA0204C7E90234D7E902124FF0000B51
S214000A604FF0000C4FEA022C4CEA116C4FEA012BB7
S214000A707A681278D1B24FF000024BEA01034CEAD2
S214000A800204C7E90234D7E902341846214614376F
S214000A90BD46BDE89008704780B483B000AF78606C
S214000AA00B467B807B685A1C7A607A88D2B21A70B2
S214000AB07B881B0A7B807B685A1C7A607A88D2B255
S214000AC01A7000BF0C37BD465DF8047B704780B4D3
S214000AD083B000AF786039607B685A1C7A603A68E9
S214000AE0D2B21A703B681B0A3B607B685A1C7A605D
S214000AF03A68D2B21A703B681B0A3B607B685A1C85
S214000B007A603A68D2B21A703B681B0A3B607B6810
S214000B105A1C7A603A68D2B21A7000BF0C37BD46CB
S214000B205DF8047B704790B484B000AFF860C7E906
S214000B300023FB685A1CFA603A781A70D7E900124C
S214000B404FF000034FF000040B0A43EA0263140A56
S214000B50C7E90034FB685A1CFA603A781A70D7E97D
S214000B6000124FF000034FF000040B0A43EA026342
S214000B70140AC7E90034FB685A1CFA603A781A70FF
S214000B80D7E900124FF000034FF000040B0A43EAC7
S214000B900263140AC7E90034FB685A1CFA603A7804
S214000BA01A70D7E900124FF000034FF000040B0A4A
S214000BB043EA0263140AC7E90034FB685A1CFA6069
S214000BC03A781A70D7E900124FF000034FF000048D
S214000BD00B0A43EA0263140AC7E90034FB685A1C8E
S214000BE0FA603A781A70D7E900124FF000034FF017
S214000BF000040B0A43EA0263140AC7E90034FB68E0
S214000C005A1CFA603A781A70D7E900124FF00003BF
S214000C104FF000040B0A43EA0263140AC7E90034E3
S214000C20FB685A1CFA603A781A7000BF1037BD4647
S214000C3090BC704780B487B000AFF860B9607A6047
S214000C40FB687B61BB683B617B68002B0DD03A6913
S214000C50531C3B617B69591C796112781A707B685A
S214000C60013B7B607B68002BF1D100BF1C37BD4683
S214000C705DF8047B704780B487B000AFF860B96059
S214000C807A60FB687B617B695A1C7A61BA68D2B26B
S214000C901A707B68013B7B607B68002BF3D100BF3A
S214000CA01C37BD465DF8047B704780B489B000AF42
S214000CB0F860B9607A60FB68FB61BB68BB610023C3
S214000CC07B61FB695A1CFA611B781946BB695A1C82
S214000CD0BA611B78CB1A7B617B68013B7B607B68C3
S214000CE0002B02D07B69002BEBD07B69184624379B
S214000CF0BD465DF8047B704780B483B000AF786073
S214000D00396002E07B6801337B607B681B78002BD0
S214000D1005D07B681B781A463B689342F2D17B6805
S214000D201B7818460C37BD465DF8047B704780B5C7
S214000D3086B000AF78600023FB737B68DB78002BFF
S214000D4034D07B685B6B7B617B6858787B6803F18B
S214000D50380101237A6919F0DBFF0346002B02D025
S214000D600123FB7322E07B680022DA707B689B6AB3
S214000D707A69D21A7B681B6A9A4217D27B689B787C
S214000D803B6110E07B681B6A7A6913447B617B6871
S214000D9058787B6803F1380101237A6919F0B8FFA7
S214000DA03B69013B3B613B69012BEBD8FB7B18465B
S214000DB01837BD4680BD80B584B000AF7860396016
S214000DC00023FB737B685B6B3A689A421BD078689B
S214000DD0FFF7ADFF0346FB73FB7B002B13D17B684D
S214000DE058787B6803F1380101233A6819F052FFFE
S214000DF00346002B04D04FF0FF333B600123FB7308
S214000E007B683A685A63FB7B18461037BD4680BD40
S214000E1080B584B000AF78607868FFF788FF034637
S214000E20FB73FB7B002B58D17B681B78032B48D1C8
S214000E307B681B79012B44D17B6838334FF40072F2
S214000E4000211846FFF717FF7B68383303F5FF735A
S214000E504AF655211846FFF71FFE7B6838332149AE
S214000E601846FFF734FE7B68383303F5F2731E49E5
S214000E701846FFF72CFE7B68383303F5F4727B6860
S214000E809B6919461046FFF722FE7B68383303F548
S214000E90F6727B685B6919461046FFF718FE7B689A
S214000EA05B6A5A1C7B685A637B6858787B6803F1D8
S214000EB038017B685A6B012319F02AFF7B680022F1
S214000EC01A717B685B7800220021184619F05EFFD5
S214000ED00346002B01D00123FB73FB7B184610371B
S214000EE0BD4680BD525261417272416180B483B08A
S214000EF000AF786039603B68023B3B607B68DB692B
S214000F00023B3A689A4201D3002308E07B685B897B
S214000F101A463B6803FB02F27B681B6B13441846B9
S214000F200C37BD465DF8047B7047000090B589B06D
S214000F3000AF786039607B681B68BB613B68012B3B
S214000F4004D9BB69DB693A689A4202D30123FB6184
S214000F50FAE04FF0FF33FB61BB691B78013B032BC4
S214000F6000F2E68001A252F823F000BF7D0F0000D9
S214000F70051000003B100000731000003B68FB608B
S214000F80FB685B08FA681344FB60BB699A6AFB68F7
S214000F905B0A13441946B869FFF70DFF0346002B9A
S214000FA040F0C980FB685A1CFA60C3F30803BA69AC
S214000FB0134493F83830BB60BB699A6AFB685B0AD7
S214000FC013441946B869FFF7F6FE0346002B40F0B7
S214000FD0B480FB68C3F30803BA69134493F8383047
S214000FE01B021A46BB681343BB603B6803F0010351
S214000FF0002B02D0BB681B0902E0BB68C3F30B03DF
S214001000FB61A1E0BB699A6A3B681B0A1344194658
S214001010B869FFF7D0FE0346002B40F09080BB690E
S21400102003F138023B685B0003F4FF731344184671
S214001030FFF73AFC0346FB6186E0BB699A6A3B68A9
S214001040DB0913441946B869FFF7B5FE0346002BC3
S21400105077D1BB6903F138023B689B0003F4FE734B
S21400106013441846FFF738FC034623F07043FB6131
S2140010706AE07B68D3E90434234359D07B689B68D5
S2140010803A68D31A7B617B68D3E9043413F1FF31E5
S21400109044F1FF324FF000034FF000044B0A43EADE
S2140010A0C253540A1A46BB695B89B2FBF3F33B6131
S2140010B07B68DB79022B0ED17A693B699A420AD8A3
S2140010C07A693B699A4202D03B68013301E06FF0CF
S2140010D00043FB6138E07B68DB79032B08D17B6833
S2140010E09B697A699A4203D23B680133FB612BE025
S2140010F07B68DB79022B1BD0BB699A6A3B68DB09ED
S21400110013441946B869FFF756FE0346002B1AD15A
S214001110BB6903F138023B689B0003F4FE7313447B
S2140011201846FFF7D9FB034623F00043FB610BE0AC
S2140011300123FB6108E000BF06E000BF04E000BF3B
S21400114002E000BF00E000BFFB6918462437BD463A
S21400115090BD00BF90B589B000AFF860B9607A6006
S2140011600223FB77BB68012B40F2E280FB68DB6959
S214001170BA689A4280F0DC80FB681B78013B032B40
S21400118000F2D68001A252F823F000BF9D110000A5
S21400119079120000B9120000B9120000BB68BB61EA
S2140011A0BB695B08BA691344BB61FB689A6ABB6992
S2140011B05B0A13441946F868FFF7FDFD0346FB7704
S2140011C0FB7F002B40F0AD80FB6803F13802BB6963
S2140011D0591CB961C3F3080313447B61BB6803F071
S2140011E00103002B0DD07B691B785BB203F00F0365
S2140011F05AB27B68DBB21B015BB213435BB2DBB255
S21400120001E07B68DBB27A691370FB680122DA7052
S214001210FB689A6ABB695B0A13441946F868FFF7CD
S214001220CAFD0346FB77FB7F002B7CD1FB6803F1EE
S2140012303802BB69C3F3080313447B61BB6803F041
S2140012400103002B03D07B681B09DBB20EE07B6931
S2140012501B785BB223F00F035AB27B681B0A5BB2A3
S21400126003F00F035BB213435BB2DBB27A69137011
S214001270FB680122DA705BE0FB689A6ABB681B0AAF
S21400128013441946F868FFF796FD0346FB77FB7F85
S214001290002B4AD1FB6803F13802BB685B0003F4FD
S2140012A0FF7313447A6892B211461846FFF7F4FBB0
S2140012B0FB680122DA703BE0FB689A6ABB68DB09D0
S2140012C013441946F868FFF776FD0346FB77FB7F65
S2140012D0002B2CD1FB681B78042B12D07B6823F0E4
S2140012E07044FB6803F13802BB689B0003F4FE738E
S2140012F013441846FFF7F0FA034603F070432343FF
S2140013007B60FB6803F13802BB689B0003F4FE7346
S214001310134479681846FFF7DAFBFB680122DA7097
S21400132006E000BF04E000BF02E000BF00E000BF30
S214001330FB7F18462437BD4690BD00BF80B58AB0F7
S21400134000AFF860B9607A60BB68023BBB60FB68C0
S214001350DB69023BBA689A4201D30023BB60BB68D4
S214001360FB61FB69BB6100237B61FB681A6BFB6951
S2140013701B0B13441946F868FFF71DFD0346002BA8
S21400138002D04FF0FF3351E0FB69DB08C3F30803DC
S2140013903B62FB6903F00703012202FA03F387F8B6
S2140013A02730FA683B6A134438331A7897F82730A0
S2140013B01340FB7497F827305B0087F82730FB69EB
S2140013C00133FB61FB68DB69023BFA699A4207D38B
S2140013D00023FB61002387F827304FF480533B62DD
S2140013E0FB7C002B09D17B6901337B617A697B68C2
S2140013F09A4206D1BB69023318E0FB69BB61002341
S2140014007B61FA69BB689A4201D100230EE097F827
S2140014102730002BC5D1012387F827303B6A0133DC
S2140014203B623B6AB3F5007FBBD39EE7184628377E
S214001430BD4680BD80B588B000AFF860B9607A6000
S2140014403B60BB68023BBB60FB681A6BBB681B0B50
S21400145013447B61BB68DB08C3F30803BB61BB684E
S21400146003F00703012202FA03F3FB777B695A1C99
S2140014707A611946F868FFF79EFC0346002B01D0F8
S21400148001233DE0FA68BB69134438331A78FB7FC2
S2140014901340DBB2002B14BF01230023DBB21A4635
S2140014A03B68934201D102232AE0FA68BB691344E1
S2140014B038331A78FB7F5340D9B2FA68BB691344B5
S2140014C038330A461A70FB680122DA707B68013BE3
S2140014D07B607B68002B01D1002311E0FB7F5B0063
S2140014E0FB77FB7F002BCDD10123FB77BB69013354
S2140014F0BB61BB69B3F5007FC4D30023BB61B5E70E
S21400150018462037BD4680BD80B586B000AF7860EF
S2140015107B68DB79032B21D17B689B687B617B68CA
S2140015209B693B6114E07B6818687B6901331A4647
S2140015307969FFF70FFE0346FB73FB7B002B01D098
S214001540FB7B0CE07B6901337B613B69013B3B61C4
S2140015503B69002BE7D17B680022DA71002318462E
S2140015601837BD4680BD80B58AB000AFF860B96058
S2140015707A600023FB77FB681B68BB61BB687B62F5
S214001580BB683B62BB68012B04D9BB69DB69BA68E0
S2140015909A4201D3022396E07B68002B14D0BB69E5
S2140015A01B78042B03D1FB68DB79022B0CD04FF0A1
S2140015B0FF327968B869FFF7CDFD0346FB77FB7FFE
S2140015C0002B01D0FB7F7EE0B968F868FFF7AEFC21
S2140015D078617B69002B55D07B69012B01D10223F2
S2140015E071E07B69B3F1FF3F01D101236BE0BB697A
S2140015F01B78042B0BD00022B968B869FFF7AAFD48
S2140016000346FB77FB7F002B01D0FB7F5BE0BB69CB
S2140016109A69BB69DB69023B9A420BD2BB699B693C
S2140016205A1CBB699A61BB691B7943F00103DAB2A5
S214001630BB691A713B6A01337A699A4202D17B69A7
S2140016403B6217E0BB691B78042B0FD13A6A7B6AB2
S214001650D31A5A1C0023796AB869FFF7EBFE0346D3
S214001660FB77FB7F002B01D0FB7F2CE07B693B6286
S2140016703B6A7B627B69BB60BB69DB69BA689A427E
S214001680A2D300E000BFBB691B78042B1AD17B688D
S214001690002B03D1FB680022DA7113E0FB68DB79CC
S2140016A0032B0FD1FB689B687A689A420AD3FB68C3
S2140016B09A68FB689B6913447A689A4202D8FB686A
S2140016C00222DA71002318462837BD4680BD80B551
S2140016D088B000AF786039607B681B683B613B6808
S2140016E0002B0DD13B695B69BB61BB69002B04D045
S2140016F03B69DB69BA699A421BD30123BB6118E0D8
S21400170039687868FFF712FCF860FB68012B01D88F
S2140017100123BBE0FB68B3F1FF3F01D1FB68B5E0F6
S2140017203B69DB69FA689A4201D2FB68AEE03B6827
S214001730BB613B691B78042B3BD10122B969386930
S214001740FFF7FCFDF861FB69002B03D0FB69B3F1E2
S214001750FF3F01D1FB6999E001230122F96938694D
S214001760FFF768FE0346FB75FB7D022B01D10123C4
S2140017708CE0FB7D012B02D14FF0FF3386E03B6807
S214001780002B03D17B680222DA713CE07B68DB79B0
S214001790022B38D1BB690133FA699A4233D07B6891
S2140017A09B68BA69D21A7B689A617B680322DA71F1
S2140017B029E0BB69FB61FB690133FB613B69DB69BF
S2140017C0FA699A4207D30223FB61FA69BB699A4217
S2140017D001D900235AE0F9697868FFF7A7FBF8609B
S2140017E0FB68002B0ED0FB68012B03D0FB68B3F11F
S2140017F0FF3F01D1FB6849E0FA69BB699A42DAD13A
S214001800002343E000BF3B691B78042B06D17B68AE
S214001810DB79022B02D10023FB7514E04FF0FF3278
S214001820F9693869FFF796FC0346FB75FB7D002BCC
S21400183009D13B68002B06D0FA6939683869FFF78A
S21400184089FC0346FB75FB7D002B16D13B69FA69C4
S2140018505A613B699A693B69DB69023B9A4204D24A
S2140018603B699B695A1E3B699A613B691B7943F049
S2140018700103DAB23B691A7107E0FB7D012B02D146
S2140018804FF0FF3300E00123FB61FB691846203769
S214001890BD4680BD80B586B000AF786039607B6895
S2140018A01B683B613B691B78042B02D14FF08052CA
S2140018B001E04FF400123B689A4204D93B6803F0FB
S2140018C01F03002B01D0022366E07B683A689A6209
S2140018D07B689B687B617B69002B09D13B691B7821
S2140018E0022B05D93B69DB6A7B617B680022DA71D3
S2140018F07B69002B0CD13B685B093A6912899342DD
S21400190001D3022348E03B69DA6A7B681A6329E060
S2140019103B695B895B02FB6019E07B687969184666
S214001920FFF704FB78617B69B3F1FF3F01D1012328
S21400193032E07B69012B04D93B69DB697A699A42FC
S21400194001D3022328E03A68FB68D31A3B603A6862
S214001950FB689A42E1D279693869FFF7C7FA02460E
S2140019607B681A637B687A69DA627B681B6B002B7C
S21400197001D1022310E07B681A6B3B685B0A1A44AD
S2140019807B681A633B6903F138023B68C3F30803BC
S2140019901A447B685A63002318461837BD4680BD34
S2140019A080B586B000AF786039607B681B68FB60E6
S2140019B07B689B6A2033BB607B681B6B002B0BD05D
S2140019C0FB681B78042B02D14FF0805201E04FF4E5
S2140019D00012BB689A4201D80423B2E0BB68C3F386
S2140019E00803002B40F0A0807B681B6B5A1C7B68AA
S2140019F01A637B68DB6A002B0BD1BB685B09FA684D
S214001A0012899342C0F090807B6800221A630423F8
S214001A1097E0BB685B0AFA685289013A1340002BCC
S214001A2040F082807A687B68DB6A19461046FFF7CA
S214001A307DFA78617B69012B01D8022381E07B69FE
S214001A40B3F1FF3F01D101237BE0FB68DB697A69D4
S214001A509A425FD33B68002B04D17B6800221A634E
S214001A6004236EE07A687B68DB6A19461046FFF747
S214001A702EFE78617B69002B01D1072361E07B692C
S214001A80012B01D102235CE07B69B3F1FF3F01D15A
S214001A90012356E07B68DB7943F00403DAB27B6807
S214001AA0DA71F868FFF743F90346002B01D00123EB
S214001AB047E0FB6838334FF4007200211846FFF702
S214001AC0DAF800233B617969F868FFF70FFA0246F7
S214001AD0FB685A6312E0FB680122DA70F868FFF7C9
S214001AE026F90346002B01D001232AE03B69013387
S214001AF03B61FB685B6B5A1CFB685A63FB685B893F
S214001B001A463B699342E6D3FB685A6B3B69D21A86
S214001B10FB685A637B687A69DA627969F868FFF766
S214001B20E5F902467B681A637B68BA689A62FB68C6
S214001B3003F13802BB68C3F308031A447B685A6390
S214001B40002318461837BD4680BD80B586B000AF66
S214001B50786039607B681B68FB6000217868FFF757
S214001B6099FE0346FB75FB7D002B40D100233B61AD
S214001B707B681B6B1946F868FFF71DF90346FB7573
S214001B80FB7D002B32D1FB681B78042B08D17B68C9
S214001B905B6B1B785BB2DB43DBB2DB09DBB20FE0CF
S214001BA07B685B6B1B78E52B04D07B685B6B1B78D4
S214001BB0002B01D1012300E0002303F00103DBB278
S214001BC0002B07D03B6901333B613A693B689A4278
S214001BD002D10CE000233B6101217868FFF7E0FEAC
S214001BE00346FB75FB7D002BC2D000E000BFFB7DEB
S214001BF0042B01D10723FB75FB7D18461837BD461D
S214001C0080BD80B584B000AF786039603B681A3319
S214001C101846FEF749FE0346FB607B681B78032BDD
S214001C2009D13B6814331846FEF73EFE03461B04F4
S214001C30FA681343FB60FB6818461037BD4680BD44
S214001C4080B584B000AFF860B9607A60BB681A33BC
S214001C507A6892B211461846FEF71EFFFB681B789C
S214001C60032B09D1BB6803F114027B681B0C9BB2E3
S214001C7019461046FEF710FF00BF1037BD4680BD60
S214001C8090B587B000AF786039603B681A33184665
S214001C90FEF70AFE0346002B01D0002359E03B68FE
S214001CA01B7803F03F035A1E13465B0013449B0049
S214001CB013447B610123FB8100233B6133E0274A09
S214001CC03B6913441B781A463B6813441846FEF7D4
S214001CD0EBFD0346BB81FB89002B1AD07B69FE2BEC
S214001CE012D8BB89184603F067FA03461C467B6980
S214001CF05A1C7A615B007A6813441B88184603F006
S214001D005BFA03469C4201D0002322E0BB89FB819C
S214001D1006E0BB894FF6FF72934201D0002318E01D
S214001D203B6901333B613B690C2BC8D93B681B7888
S214001D3003F04003002B0BD0FB89002B08D07B69F7
S214001D405B007A6813441B88002B01D0002300E058
S214001D50012318461C37BD4690BD00BFD085020043
S214001D6080B586B000AF786039603B681A33184695
S214001D70FEF79AFD0346002B01D000234DE03B689A
S214001D801B7803F03F035A1E13465B0013449B0068
S214001D9013447B610123FB8100233B6128E0214A39
S214001DA03B6913441B781A463B6813441846FEF7F3
S214001DB07BFD0346BB81FB89002B0FD07B69FE2B86
S214001DC001D9002329E0BB89FB817B695A1C7A6113
S214001DD05B007A681344FA891A8006E0BB894FF6DE
S214001DE0FF72934201D0002317E03B6901333B6149
S214001DF03B690C2BD3D93B681B7803F04003002BC0
S214001E000AD07B69FE2B01D9002306E07B695B00C4
S214001E107A68134400221A80012318461837BD46F4
S214001E2080BD00BFD085020080B588B000AFF860E6
S214001E30B96011461A460B46FB711346BB71BB6868
S214001E400D33BA791A70BB680B330F221A70BB6851
S214001E500C3300221A70BB681A3300211846FEF7AE
S214001E601BFEFB795A1E13465B0013449B0013446B
S214001E70FB610023FB820023BB61FB8A4FF6FF72E7
S214001E80934207D0FB695A1CFA615B00FA68134458
S214001E901B88FB82174ABB6913441B781A46BB682B
S214001EA01344FA8A11461846FEF7F6FDFB8A002B05
S214001EB002D14FF6FF73FB82BB690133BB61BB697E
S214001EC00C2BDAD9FB8A4FF6FF72934206D0FB69D9
S214001ED05B00FA6813441B88002B03D1FB7943F0A0
S214001EE04003FB71BB68FA791A7000BF2037BD4605
S214001EF080BD00BFD085020080B58CB000AFF86012
S214001F00B9607A603B600B22B968F868FEF792FE0B
S214001F103B68052B2BD93B68FB6122E07B689A1C4B
S214001F207A601B887B840023BB6217E0FB695A003B
S214001F307B8C03F001031344FB617B8C5B087B8482
S214001F40FB6903F48033002B05D0FB6983F48833E8
S214001F5083F02103FB61BB6A0133BB62BB6A0F2BB4
S214001F60E4D97B681B88002BD8D1FB693B6007232C
S214001F70BB623B68DBB203F00F03DBB2303387F89B
S214001F802F3097F82F30392B04D997F82F30073396
S214001F9087F82F30BB6A5A1EBA6207F13002134424
S214001FA097F82F2003F81C2C3B681B093B603B6806
S214001FB0002BDED107F11402BB6A13447E221A708E
S214001FC000237B6202E07B6A01337B627A6ABB6A2B
S214001FD09A4205D2FA687B6A13441B78202BF2D10A
S214001FE0BB6A072B08D8BB6A5A1CBA6207F13002D4
S214001FF0134413F81C1C00E020217B6A5A1C7A62EA
S214002000FA6813440A461A707B6A072BE8D900BFA1
S2140020103037BD4680BD80B485B000AF7860002301
S214002020FB730B23BB60FB7BDAB25208DB01134366
S214002030DAB27B68591C79601B781344FB73BB6863
S214002040013BBB60BB68002BEDD1FB7B1846143709
S214002050BD465DF8047B704780B487B000AF7860FB
S2140020607B6801331B7801335B01FB6000237B82B6
S21400207000237B6118E07B69022B03D17B69013367
S2140020807B610EE07B8ADB039AB27B8A5B089BB29D
S21400209013449AB279687B690B441B789BB213444D
S2140020A07B827B6901337B617A69FB689A42E2D363
S2140020B07B8A18461C37BD465DF8047B704780B5A2
S2140020C084B000AF78600023FB811FE0BB89184610
S2140020D003F072F80346BB81FB89DB039AB2FB89E7
S2140020E05B089BB213449AB2BB89DBB29BB2134423
S2140020F0FB81FB89DB039AB2FB895B089BB2134426
S2140021009AB2BB891B0A9BB21344FB817B689A1C5C
S2140021107A601B88BB81BB89002BD7D1FB89184608
S2140021201037BD4680BD90B587B000AF7860396087
S21400213040233B6100237B611BE03B6903F01F03E8
S214002140002B02D13B6902333B617A683B6913443A
S2140021501846FEF7A9FB0346FB813B687A691432F2
S214002160F98923F812103B6902333B617B6901331E
S2140021707B617B6823331B781A467B699342DCD3EA
S2140021807B69002B07D17B695A1C7A613A68143345
S2140021903F2122F813103B687A691432002123F895
S2140021A012103B680022DA817B681A793B681A7342
S2140021B03B681B7B03F01003002B07D17B6838338A
S2140021C01846FEF7ACFB03460C4603E04FF0000350
S2140021D04FF000043A68C2E900347B680C331846B6
S2140021E0FEF762FB03461A463B685A817B680E334D
S2140021F01846FEF759FB03461A463B681A8100BF8D
S2140022001C37BD4690BD90B587B000AF78607B6840
S2140022101B681B693B617B681A687B681B6B1946E9
S2140022201046FEF7C8FD0346FB73FB7B002B01D070
S214002230FB7B8AE07B685B6B1B78852B01D00223D7
S21400224083E07B685B6B202219463869FEF7F2FC58
S2140022503B6901331B780133BB6000217868FFF7C8
S2140022609FFB0346FB73FB7B002B01D0FB7B6CE0E4
S2140022707B681A687B681B6B19461046FEF79BFD49
S2140022800346FB73FB7B002B01D0FB7B5DE07B688A
S2140022905B6B1B78C02B01D0022356E03B6903F131
S2140022A020007B685B6B20221946FEF7C3FCBB68E8
S2140022B0022B02D9BB68132B01D9042345E0402327
S2140022C07B61BB685B01BB6000217868FFF768FB39
S2140022D00346FB73FB7B002B01D0FB7B35E07B6862
S2140022E01A687B681B6B19461046FEF764FD0346AA
S2140022F0FB73FB7B002B01D0FB7B26E07B685B6BD4
S2140023001B78C12B01D002231FE03A697B69D018E5
S2140023107B685B6B20221946FEF78CFC7B692033BA
S2140023207B617A69BB689A42CED33869FFF794FE20
S21400233003461C463B6902331846FEF7B5FA0346C9
S2140023409C4201D0022300E0002318461C37BD46FD
S21400235090BD2DE9904884B000AF786039603B6846
S2140023601A687B681A603B68DA697B689A603B6823
S2140023701B6ADAB27B68DA713B681B6A9B464FF0D1
S214002380000C6FF0FF014FF000020BEA01030CEAAD
S21400239002047A68C2E904343B685A6A7B685A6465
S2140023A07B685B6C19467868FFF774FA0346FB7324
S2140023B0FB7B002B04D17868FFF725FF0346FB73F1
S2140023C0FB7B18461037BD46BDE8908890B587B0B1
S2140023D000AF78607B681B681B69FB60FB689C1C11
S2140023E0F868FFF739FE034619462046FEF754FB09
S2140023F0FB6801331B7801333B617B685B6C1946D5
S2140024007868FFF747FA0346FB7526E07B681A688C
S2140024107B681B6B19461046FEF7CDFC0346FB7522
S214002420FB7D002B1DD17B685B6B2022F96818466C
S214002430FEF700FC7B681B680122DA703B69013BF3
S2140024403B613B69002B0ED0FB682033FB6000210C
S2140024507868FFF7A5FA0346FB75FB7D002BD5D001
S21400246002E000BF00E000BFFB7D002B02D0FB7D3A
S214002470012B01D1FB7D00E0022318461C37BD4628
S21400248090BD90B585B000AF7860396040220021DD
S2140024907868FEF7F0FB7B6885221A707B6820332D
S2140024A0C0221A707B6803F124043868FFF707FE21
S2140024B0034619462046FEF7EFFA4023FB6000234A
S2140024C0BB720123FB7201233B81FB685A1CFA6036
S2140024D07A681344C1221A70FB685A1CFA607A683C
S2140024E0134400221A703B89002B0BD0BB7A5B008A
S2140024F03A6813441B883B813B89002B02D0BB7A89
S2140025000133BB727A68FB6813443A891146184651
S214002510FEF7C2FAFB680233FB60FB6803F01F039A
S214002520002BE0D1FB7A0133FB72BB7A5B003A6882
S21400253013441B88002BC8D17B682333BA7A1A70E1
S2140025407B680133FA7A1A7000BF1437BD4690BD17
S21400255080B586B000AF786039600423FB757B6871
S2140025601B683B61FF237B75FF233B759FE07B6801
S2140025701B6B19463869FEF71EFC0346FB75FB7D90
S214002580002B40F09A807B685B6B1B78BB75BB7D2D
S214002590002B02D10423FB7596E03B691B78042BC5
S2140025A018D1BB7D852B79D17B689A6A7B685A6483
S2140025B07868FFF728FE0346FB75FB7D002B7ED16F
S2140025C03B691B6904331B7803F03F03DAB27B6870
S2140025D09A7174E07B685B6B0B331B7803F03F03E8
S2140025E0FB737B68FA7B9A71BB7DE52B0ED0BB7DB7
S2140025F02E2B0BD0FB7B23F02003082B0CBF0123D4
S2140026000023DBB21A463B68934202D0FF237B7559
S21400261044E0FB7B0F2B2FD1BB7D03F04003002B48
S2140026200DD07B685B6B5B7B3B75BB7D23F040030B
S214002630BB75BB7D7B757B689A6A7B685A64BA7D7E
S2140026407B7D9A4215D17B685B6B0D331B783A7D98
S2140026509A420ED13B69DA687B685B6B1946104676
S214002660FFF77EFB0346002B03D07B7D013BDBB2EE
S21400267000E0FF237B7511E07B7D002B09D17B6892
S2140026805B6B1846FFF7C7FC03461A463B7D934232
S21400269017D07B684FF0FF325A6412E0002178684A
S2140026A0FFF77EF90346FB75FB7D002B0BD17B689D
S2140026B01B6B002B7FF45BAF06E000BF04E000BF9F
S2140026C002E000BF00E000BFFB7D002B02D07B686D
S2140026D000221A63FB7D18461837BD4680BD90B5AC
S2140026E089B000AF78607B681B68FB600021786863
S2140026F0FFF7D0F80346FB77FB7F002B01D0FB7F6C
S21400270012E1FB681B78042B64D1FB68DB68184673
S214002710FFF7D5FC03463B814FE0FB681B6924337B
S2140027201846FEF7C1F803461A463B89934200D086
S21400273043E0FB681B6993F82330FB7640237B61FC
S21400274000233B6129E07B6903F01F03002B02D1C5
S2140027507B6902337B61FB681A697B691344184600
S214002760FEF7A2F80346184602F026FD03461C466E
S214002770FB68DA683B695B0013441B88184602F066
S2140027801BFD03469C420CD1FB7E013BFB767B691E
S21400279002337B613B6901333B61FB7E002BD2D168
S2140027A000E000BFFB7E002B07D1FB68DA683B69C0
S2140027B05B0013441B88002B09D000217868FFF7C4
S2140027C0C7FE0346FB77FB7F002BA6D000E000BFCA
S2140027D0FB7FA9E0FF233B773B7F7B777B684FF04F
S2140027E0FF325A647B681B6B1946F868FEF7E3FAFB
S2140027F00346FB77FB7F002B40F090807B685B6B8B
S2140028001B78BB77BB7F002B02D10423FB778AE0C3
S2140028107B685B6B0B331B7803F03F03FB727B68B4
S214002820FA7A9A71BB7FE52B07D0FB7A03F0080390
S214002830002B09D0FB7A0F2B06D0FF237B777B6813
S2140028404FF0FF325A645EE0FB7A0F2B36D17B687E
S21400285093F8433003F04003002B54D1BB7F03F0C2
S2140028604003002B0DD07B685B6B5B7B3B77BB7FAD
S21400287023F04003BB77BB7F7B777B689A6A7B68D5
S2140028805A64BA7F7B7F9A4215D17B685B6B0D33A7
S2140028901B783A7F9A420ED1FB68DA687B685B6BDE
S2140028A019461046FFF7ECF90346002B03D07B7F52
S2140028B0013BDBB200E0FF237B7724E07B7F002B2D
S2140028C009D17B685B6B1846FFF7A5FB03461A46E3
S2140028D03B7F934224D07B6893F8433003F0010398
S2140028E0002B0AD17B68586B7B6838330B2219465D
S2140028F0FEF7DBF90346002B14D0FF237B777B68BB
S2140029004FF0FF325A6400217868FFF749F8034613
S214002910FB77FB7F002B3FF465AF04E000BF02E0CF
S21400292000BF00E000BFFB7F18462437BD4690BDC1
S2140029302DE990489EB000AF78607B681B687B6688
S2140029407B6893F8433003F0A003002B01D00623E6
S21400295084E10023FB6602E0FB6E0133FB667B6EC0
S214002960DA68FB6E5B0013441B88002BF4D17B6E89
S2140029701B78042B40F09A80FB6E0E33BA4AA2FBFB
S2140029800323DB080233BB66B96E7868FFF7DDF811
S214002990034687F8773097F87730002B02D097F801
S2140029A077305BE17B689A6ABB6E03F10063013B9C
S2140029B05B01D21A7B685A647B689B68002B6BD0DD
S2140029C07B68DB7903F00403002B65D07B68DB793A
S2140029D003F00303DAB27B68DA717B68D3E904128A
S2140029E07B6E5B895B029B464FF0000C1BEB010382
S2140029F04CEB02047A68C2E904347B681846FEF79A
S214002A0083FD034687F8773097F87730002B02D09F
S214002A1097F8773022E17A6807F1080311461846DE
S214002A20FFF797FC034687F8773097F87730002B48
S214002A3002D097F8773011E17B6E1B6903F13801FD
S214002A407B68D3E904341A4623460846FEF76BF83B
S214002A507B6E1B6903F128017B68D3E904341A46B0
S214002A6023460846FEF75FF87B68DA797B6E1B69BB
S214002A70213342F00102D2B21A7007F10803184659
S214002A80FFF7A4FC034687F8773097F87730002BDB
S214002A9002D097F87730E1E07B6E1A697B6EDB68D0
S214002AA019461046FFF7EDFC0023D7E07B6803F1DC
S214002AB0380107F154030C221846FEF7BBF897F8C6
S214002AC05F3003F00103002B33D07B68402283F88D
S214002AD0432001233B6716E07B6803F138007B6EDA
S214002AE0DA6807F154013B6FFFF706FA7868FFF7DC
S214002AF0F6FD034687F8773097F87730002B06D137
S214002B003B6F01333B673B6F632BE5D900E000BFAB
S214002B103B6F642B01D10723A0E097F87730042B96
S214002B2002D097F8773099E097F85F207B6883F8B3
S214002B30432097F85F3003F00203002B07D0FB6EAC
S214002B400C334A4AA2FB03239B08013300E001230F
S214002B50BB66B96E7868FEF7F8FF034687F87730ED
S214002B6097F87730002B4AD1BB6E013BBB66BB6E35
S214002B70002B44D07B689A6ABB6E5B01D31A194659
S214002B807868FEF787FE034687F8773097F8773041
S214002B90002B34D17B6838331846FFF73CFA0346DF
S214002BA087F863307B681B6B1946786EFEF703F96F
S214002BB0034687F8773097F87730002B1ED17B6E68
S214002BC0D8687B68596BBB6EDAB297F86330FFF74C
S214002BD02BF97B6E0122DA7000217868FEF7E0FEA2
S214002BE0034687F8773097F87730002B07D1BB6E0F
S214002BF0013BBB66BB6E002BD4D100E000BF97F84C
S214002C007730002B28D17B681B6B1946786EFEF751
S214002C10D2F8034687F8773097F87730002B1BD129
S214002C207B685B6B202200211846FEF724F87B6841
S214002C30586B7B6838330B221946FDF7FBFF7B6821
S214002C4093F843207B685B6B0C3302F01802D2B219
S214002C501A707B6E0122DA7097F87730184678374C
S214002C60BD46BDE8908800BF898888884FECC44E72
S214002C7080B586B000AF78607B681B683B617B6878
S214002C809B6AFB607B685B6CB3F1FF3F07D07B6899
S214002C905B6C19467868FEF7FDFD034600E00023EE
S214002CA0FB75FB7D002B36D17B681B6B194638699C
S214002CB0FEF781F80346FB75FB7D002B23D13B69AD
S214002CC01B78042B09D17B685B6B1A787B685B6B7F
S214002CD002F07F02D2B21A7003E07B685B6BE522DB
S214002CE01A703B690122DA707B689B6AFA689A421E
S214002CF00BD900217868FEF753FE0346FB75FB7D73
S214002D00002BD1D002E000BF00E000BFFB7D042B0B
S214002D1001D10223FB75FB7D18461837BD4680BDE2
S214002D2090B589B000AF786039607B681B683B61FE
S214002D303B6800221A857B681B6B002B00F0D9804D
S214002D403B691B78042B06D13B691B69396818461A
S214002D50FFF7E9F9CEE07B685B6CB3F1FF3F24D068
S214002D600023BB61BB69FB610DE0FB69FE2B02D94A
S214002D700023FB6113E0FB695A1CFA613A681433BE
S214002D80F98922F813103B69DA68BB69591CB961E6
S214002D905B0013441B88FB81FB89002BE5D13B6855
S214002DA0FA691432002123F812100023BB61BB69B4
S214002DB0FB613B68FA69143233F81230BB815BE082
S214002DC07B685A6BFB69591CF96113441B78FB82BC
S214002DD0FB8A202B00D14FE0FB8A052B01D1E5238F
S214002DE0FB82FB69092B11D1BB89002B05D13B68FF
S214002DF0BA6914322E2123F81210BB695A1CBA6124
S214002E003A6804335B0013442E22DA80FB8A0121E1
S214002E10184602F095F90346FB82FB8A002B01D187
S214002E203F23FB823A68BB6904335B001344FA8A8B
S214002E30DA80BB89002B1CD1FB8A402B13D9FB8A76
S214002E405A2B10D87B685B6B0C331B781A46FB69D1
S214002E50082B01D9102300E008231340002B02D0D2
S214002E60FB8A2033FB823B68BA691432F98A23F85E
S214002E701210BB690133BB61FB690A2BA0D9BB8961
S214002E80002B0DD13B68BA691432002123F81210CA
S214002E907B685B6B0C331B78002B01D10023BB6176
S214002EA03A68BB6904335B0013440022DA807B680F
S214002EB05B6BDA7A3B681A737B685B6B1C3318466D
S214002EC0FDF70AFD03464FF000043A68C2E90034F5
S214002ED07B685B6B16331846FDF7FEFCB860BB6874
S214002EE09AB23B685A81BB681B0C9AB23B681A813F
S214002EF000E000BF2437BD4690BD000080B58AB014
S214002F0000AF786039603B681B683B617B681B6874
S214002F10DB68FB6000237B617B69BB61BB695A1C75
S214002F20BA615B003A6913441B88BB84BB8C1F2BB9
S214002F3033D9BB8C2F2B06D0BB8C5C2B12D102E076
S214002F40BB690133BB61BB695B003A6913441B88EC
S214002F502F2BF5D0BB695B003A6913441B885C2BAA
S214002F60EED01BE07B69FE2B01D9062369E1BB8C02
S214002F707F2B09D8BB8C1946B448FDF7BDFE034627
S214002F80002B01D006235CE17B695A1C7A615B004A
S214002F90FA681344BA8C1A80C0E700BFBB695B00AE
S214002FA03A691A443B681A60BB8C1F2B01D804236D
S214002FB000E0002387F8263011E07B6903F1004328
S214002FC0013B5B00FA6813441B88BB84BB8C202B38
S214002FD002D0BB8C2E2B06D17B69013B7B617B69C3
S214002FE0002BEAD100E000BF7B695B00FA6813445F
S214002FF000221A807B69002B01D1062321E17B6821
S21400300038330B2220211846FDF735FE0023BB611E
S21400301002E0BB690133BB61BB695B00FA6813441D
S2140030201B88202BF5D0BB695B00FA6813441B880D
S2140030302E2BEED0BB69002B09D097F8263043F034
S214003040030387F8263002E07B69013B7B617B69DE
S214003050002B09D07B6903F10043013B5B00FA6853
S21400306013441B882E2BEFD1002387F8273000232C
S2140030703B620823FB61BB695A1CBA615B00FA68B5
S21400308013441B88BB84BB8C002B00F09080BB8C49
S214003090202B06D0BB8C2E2B0AD1BA697B699A42AC
S2140030A006D097F8263043F0030387F826307DE0F5
S2140030B03A6AFB699A4203D2BA697B699A4223D17B
S2140030C0FB690B2B06D197F8263043F0030387F8ED
S2140030D026306FE0BA697B699A4205D097F82630A9
S2140030E043F0030387F82630BA697B699A4260D8B2
S2140030F07B69BB6108233B620B23FB6197F8273093
S2140031009B0087F8273051E0BB8C7F2B14D9BB8CF3
S2140031100021184602F014F80346BB84BB8C002B33
S21400312004D0BB8C803B4A4AD35CBB8497F82630DD
S21400313043F0020387F82630BB8C002B07D0BB8CED
S21400314019464448FDF7D8FD0346002B08D05F23F8
S214003150BB8497F8263043F0030387F826301BE03D
S214003160BB8C402B09D9BB8C5A2B06D897F8273036
S21400317043F0020387F827300EE0BB8C602B0BD998
S214003180BB8C7A2B08D897F8273043F0010387F8D2
S2140031902730BB8C203BBB843B6A5A1C3A62BA8CF5
S2140031A0D1B27A6813440A4683F8382063E700BF32
S2140031B000E000BF7B6893F83830E52B03D17B68CE
S2140031C0052283F83820FB69082B04D197F82730AE
S2140031D09B0087F8273097F8273003F00C030C2B5A
S2140031E005D097F8273003F00303032B05D197F893
S2140031F0263043F0020387F8263097F8263003F08F
S2140032000203002B17D197F8273003F00303012B96
S21400321005D197F8263043F0100387F8263097F844
S214003220273003F00C03042B05D197F8263043F023
S214003230080387F826307B6897F8262083F8432013
S214003240002318462837BD4680BD00BFE085020033
S21400325050850200EC85020090B587B000AF78601C
S21400326039607B683B613B691B68FB6002E03B683A
S21400327002333B603B681B882F2BF8D03B681B88CB
S2140032805C2BF4D03B6900229A603B681B881F2B9E
S2140032900AD87B68802283F8432000217868FEF7EE
S2140032A0F9FA0346FB7577E03B4619467868FFF760
S2140032B025FE0346FB75FB7D002B68D17868FFF77B
S2140032C00EFA0346FB757B6893F84330FB72FB7D72
S2140032D0002B0AD0FB7D042B5BD1FB7A03F00403A2
S2140032E0002B56D10523FB7553E0FB7A03F004034D
S2140032F0002B50D13B699B7903F01003002B02D1C1
S2140033000523FB7548E0FB681B78042B2FD13B692F
S2140033109A683B69DA613B69D3E9043423F0FF031A
S2140033203A69D2791A433B691A627B685A6C3B69E0
S2140033305A62FB681B6934331846FDF7CDFA02461D
S2140033403B699A60FB681B6921331B7803F0020314
S214003350DAB23B69DA71FB681B6938331846FDF749
S214003360DEFA03460C463A69C2E904349CE7FB6879
S21400337003F138027B689B6AC3F3080313441946BB
S214003380F868FEF73EFC02463B699A608CE700BF91
S21400339002E000BF00E000BFFB7D18461C37BD46BC
S2140033A090BD80B487B000AF78604FF0FF333B61CC
S2140033B07B681B68002B31D07B681B687B6102E052
S2140033C07B6902337B617B691B881F2B03D97B6972
S2140033D01B883A2BF4D17B691B883A2B1CD17B685F
S2140033E01B68FB60FB689A1CFA601B88303BBB605E
S2140033F0BB68092B0ED8FA687B699A420AD1BB686B
S214003400002B07D1BB683B617B6902337B617B681D
S2140034107A691A603B6902E000233B613B69184603
S2140034201C37BD465DF8047B7047000080B582B04F
S21400343000AF786039607B680022DA707B684FF0F6
S214003440FF325A6339687868FDF7B5FC0346002BEF
S21400345001D0042344E07B68383303F5FF73184635
S214003460FDF722FA03461A464AF655239A4201D039
S214003470032335E07B6893F83830E92B09D07B6866
S21400348093F83830EB2B1ED17B6893F83A30902BAC
S21400349019D17B68383336331846FDF71DFA0346D4
S2140034A023F07F43104A934201D1002318E07B6843
S2140034B0383352331846FDF70FFA02460B4B9A4242
S2140034C001D100230CE07B6838330B2208491846EC
S2140034D0FDF7EBFB0346002B01D1012300E002239E
S2140034E018460837BD4680BD464154004641543311
S2140034F0F48502002DE9904898B000AFF860B960F6
S2140035001346FB71BB6800221A60F868FFF749FF94
S21400351078647B6C002B01DA0B232CE3B24A7B6CBD
S21400352052F823303B643B6C002B01D10C2322E382
S214003530BB683A6C1A60FB7923F00103FB713B6CA5
S2140035401B78002B1AD03B6C5B78184617F08EFB66
S214003550034687F83F3097F83F3003F00103002B0F
S2140035600CD1FB79002B07D097F83F3003F004030B
S214003570002B01D00A23FEE20023FCE23B6C002273
S2140035801A707B6CDAB23B6C5A703B6C5B781846F0
S21400359017F02CFB034687F83F3097F83F3003F0D0
S2140035A00103002B01D00323E5E2FB79002B07D0B3
S2140035B097F83F3003F00403002B01D00A23DAE229
S2140035C00023BB65B96D386CFFF730FF034687F8FC
S2140035D05F3097F85F30022B4BD10023BB641FE0AF
S2140035E03B6C03F13802BB6C1B0103F5DF7313441D
S2140035F0BB63BB6B04331B78002B06D0BB6B083356
S2140036001846FDF769F9024600E00022BB6C9B00F5
S21400361007F160010B4443F8502CBB6C0133BB64CC
S214003620BB6C032BDCD90023BB64BB6C002B02D025
S214003630BB6C013BBB64BB6C9B0007F16002134490
S21400364053F8503CBB65BB6D002B05D0B96D386C8C
S214003650FFF7ECFE034600E0032387F85F3097F899
S2140036605F30012B05D9BB6C0133BB64BB6C032BED
S214003670E1D997F85F30042B01D101237BE297F85C
S2140036805F30012B01D90D2375E297F85F30012BCF
S21400369040F0F8800B23BB6402E0BB6C0133BB64D4
S2140036A0BB6C3F2B06D83A6CBB6C134438331B7884
S2140036B0002BF2D0BB6C3F2B01D80D235BE23B6C9A
S2140036C0383368331846FDF7EFF80346B3F5807FC6
S2140036D001D00D234FE23B6C93F8A430092B01D0A8
S2140036E00D2348E23B6C383348331846FDF717F98C
S2140036F00A460146BB6D9B464FF0000C1BEB0103D0
S2140037004CEB0204C7E90834D7E90834012C08BF9B
S214003710002B01D30D232EE23B6C3833543318466E
S214003720FDF7DAF802463B6C1A623B6C93F8A6206B
S2140037303B6C9A703B6C9B78012B01D00D231AE2F0
S2140037403B6C93F8A5301A46012393409AB23B6C23
S2140037505A813B6C5B89002B01D10D230BE23B6C3D
S21400376038335C331846FDF7B7F8F862FB6A1F4A31
S214003770934201D90D23FEE1FB6A9A1C3B6CDA6189
S2140037803B6CBA6D5A623B6C383358331846FDF7BB
S214003790A3F80246BB6D1A443B6C1A633B6C383385
S2140037A050331846FDF798F80246BB6D1A443B6C3A
S2140037B09A623B6C1B6B19464FF000023B6C5B89B0
S2140037C01846FB6A03FB00F39B464FF0000C1BEB0E
S2140037D001034CEB0204D7E90812A24208BF994243
S2140037E006D20D23C7E100BF88070020FDFFFF7F3C
S2140037F03B6C383360331846FDF76EF802463B6C78
S214003800DA623B6CDB6A1946386CFDF76FFB0346E1
S2140038101946386CFDF7CFFA0346002B01D001237A
S214003820A9E10023BB6415E03A6CBB6C1344383343
S2140038301B78812B0BD13B6C03F13802BB6C143325
S21400384013441846FDF748F80346022B07D0BB6C16
S2140038502033BB64BB6CB3F5007FE5D300E000BF4C
S214003860BB6CB3F5007F01D10D2384E13B6C4FF0B8
S214003870FF329A613B6C9A693B6C5A61042387F865
S2140038805F3063E13B6C38330B331846FDF70CF8BA
S2140038900346B3F5007F01D00D236CE13B6C383353
S2140038A016331846FDF700F803467B657B6D002B44
S2140038B006D13B6C383324331846FDF70DF878658F
S2140038C03B6C7A6D1A623B6C93F848203B6C9A709E
S2140038D03B6C9B78012B05D03B6C9B78022B01D070
S2140038E00D2348E13B6C9B781A467B6D02FB03F385
S2140038F07B653B6C93F845309AB23B6C5A813B6CC7
S2140039005B89002B08D03B6C5B891A463B6C5B8955
S214003910013B1340002B01D00D232CE13B6C3833C8
S21400392011331846FCF7C0FF03461A463B6C1A8153
S2140039303B6C1B8903F00F039BB2002B01D00D23B9
S21400394019E13B6C383313331846FCF7ADFF0346DA
S2140039503B653B6D002B06D13B6C38332033184655
S214003960FCF7BAFF38653B6C38330E331846FCF765
S2140039709BFF0346FB86FB8E002B01D10D23FAE04E
S214003980FA8E7B6D13443A6C1289120992B2134474
S2140039903B633A6D3B6B9A4201D20D23EBE03A6DE6
S2140039A03B6BD31A3A6C5289B3FBF2F3FB62FB6AA9
S2140039B0002B01D10D23DEE0032387F85F30FB6A7E
S2140039C04FF6F572934202D8022387F85F30FB6AFF
S2140039D040F6F572934202D8012387F85F30FB6AFF
S2140039E09A1C3B6CDA613B6CBA6D5A62FA8EBB6D00
S2140039F01A443B6C9A62BA6D3B6B1A443B6C1A6372
S214003A0097F85F30032B1ED13B6C38332A331846A9
S214003A10FCF74AFF0346002B01D00D23ABE03B6CBE
S214003A201B89002B01D00D23A5E03B6C38332C33CB
S214003A301846FCF751FF02463B6CDA623B6CDB69CA
S214003A409B00FB641FE03B6C1B89002B01D10D2300
S214003A5091E03B6C9A6A7B6D1A443B6CDA6297F88D
S214003A605F30022B03D13B6CDB695B000AE03B6CEA
S214003A70DA6913465B0013445A083B6CDB6903F0B3
S214003A8001031344FB643B6C1A6AFB6C03F2FF13DE
S214003A905B0A9A4201D20D236DE03B6C4FF0FF3279
S214003AA09A613B6C9A693B6C5A613B6C80221A7136
S214003AB097F85F30032B49D13B6C383330331846C8
S214003AC0FCF7F2FE0346012B40D1BB6D01331946CD
S214003AD0386CFDF770F90346002B37D13B6C00229B
S214003AE01A713B6C383303F5FF731846FCF7DCFE9F
S214003AF003461A464AF655239A4227D13B6C38337A
S214003B001846FCF7E9FE02461D4B9A421ED13B6C56
S214003B10383303F5F2731846FCF7DEFE0246194BFF
S214003B209A4213D13B6C383303F5F4731846FCF70E
S214003B30D3FE02463B6C9A613B6C383303F5F67352
S214003B401846FCF7C9FE02463B6C5A613B6C97F878
S214003B505F201A700C4B1B8801339AB20A4B1A80EE
S214003B60094B1A883B6CDA803B6C084ADA603B6C7F
S214003B70074A1A61002318466037BD46BDE890889C
S214003B8052526141727241618C070020F009002098
S214003B909007002080B584B000AF786039607B68FD
S214003BA0002B1AD07B681B68002B16D07B681B681E
S214003BB01B78002B11D07B681B68DA887B689B8893
S214003BC09A420AD17B681B685B78184617F04EF855
S214003BD0034603F00103002B05D03B6800221A6061
S214003BE00923FB7305E07B681A683B681A600023AC
S214003BF0FB73FB7B18461037BD4680BD80B588B08A
S214003C0000AFF860B9601346FB71BB683B6107F113
S214003C1010031846FFF7C5FBF861FB69002B01DAB5
S214003C200B232EE0194AFB6952F82330BB61BB69AF
S214003C30002B02D0BB6900221A70FB68002B03D051
S214003C40FB6800221A7004E000220821002017F00A
S214003C509DF8FA680D49FB6941F82320FB68002BA4
S214003C6002D0FB79012B01D000230AE007F10C01FA
S214003C7007F1080300221846FFF73CFC0346FB75D5
S214003C80FB7D18462037BD4680BD00BF8807002054
S214003C902DE99048A0B000AFF860B9601346FB71FC
S214003CA0FB68002B01D109235EE2FB7903F03F039A
S214003CB0FB71FA7907F1140107F108031846FFF7BC
S214003CC019FC034687F87F3097F87F30002B40F0CA
S214003CD042827B69BB61BA6807F118031146184631
S214003CE0FFF7BAFA034687F87F3097F87F30002B45
S214003CF007D197F85B305BB2002B02DA062387F811
S214003D007F30FB7903F01C03002B00F0FE8097F851
S214003D107F30002B10D097F87F30042B07D107F1A7
S214003D2018031846FEF704FE034687F87F30FB7933
S214003D3043F00803FB7110E0BB7F03F01103002B78
S214003D4003D0072387F87F3007E0FB7903F00403EE
S214003D50002B02D0082387F87F3097F87F30002B9F
S214003D6040F0ED80FB7903F00803002B00F0E780BD
S214003D7017F02CFCF8667B691B78042B7ED17A69D9
S214003D80FB681A607B691B6934331846FCF7A4FD90
S214003D900246FB689A607B691B6938331846FCF755
S214003DA0BEFD03460C46FA68C2E904347B691B690B
S214003DB021331B7803F00203DAB2FB68DA717B6901
S214003DC01B690833F96E1846FCF781FE7B691B6990
S214003DD0143300221A707B691B690C33F96E18467F
S214003DE0FCF775FE7B691B69153300221A707B6928
S214003DF01B69043320221A707B691B693433002147
S214003E001846FCF764FE7B691B6903F138014FF026
S214003E1000024FF000030846FCF785FE7B691B692D
S214003E2003F128014FF000024FF000030846FCF7AC
S214003E307AFE7B691B69213301221A7007F1180389
S214003E401846FEF7C3FA034687F87F3097F87F30A8
S214003E50002B74D1FB689B68002B70D0F868FB6859
S214003E609B6800221946FDF77EFB034687F87F30E5
S214003E70FB689A687B69013A5A6160E0FB6C0E3316
S214003E80F96E1846FCF723FEFB6C1633F96E1846DF
S214003E90FCF71DFEFB6C0B3320221A707B69FA6C54
S214003EA011461846FDF7ADFEB8667B69F96C002230
S214003EB01846FDF7C5FEFB6C1C3300211846FCF7C0
S214003EC006FE7B690122DA70BB6E002B37D07B6959
S214003ED05B6BFB6607F118030022B96E1846FDF708
S214003EE042FB034687F87F3097F87F30002B26D1B9
S214003EF07B69F96E1846FCF75EFF034687F87F304D
S214003F007B69BA6E013A5A6119E097F87F30002B48
S214003F1015D1BB7F03F01003002B03D0042387F8D2
S214003F207F300CE0FB7903F00203002B07D0BB7F49
S214003F3003F00103002B02D0072387F87F3097F8A1
S214003F407F30002B0FD1FB7903F00803002B03D042
S214003F50FB7943F04003FB717B695A6BFB681A647C
S214003F60FA6CFB685A6497F87F30002B40F0F380B9
S214003F707B691B78042B2BD17B691B69343318466D
S214003F80FCF7AAFC0246FB689A607B691B6938331B
S214003F901846FCF7C4FC03460C46FA68C2E904342B
S214003FA07B691B6921331B7803F00203DAB2FB68D6
S214003FB0DA713A6AFB68DA61D7E90A3423F0FF035C
S214003FC0FA7F1A43FB681A62FA6DFB685A6213E0BE
S214003FD07B69FA6C11461846FDF713FE0246FB682D
S214003FE09A60FB6C1C331846FCF776FC03464FF0D1
S214003FF00004FA68C2E904347A69FB681A607B69CF
S214004000DA88FB689A80FB68FA7983F82820FB68D0
S214004010002283F82920FB680022DA63FA684FF052
S21400402000034FF00004C2E90C34FB6848334FF439
S214004030007200211846FCF71EFEFB7903F02003F1
S214004040002B00F08880FB68D3E90434234300F09B
S2140040508280FB68D3E90434FA68C2E90C347B69D1
S2140040605B895B027B66FB689B68BB67FB68D3E982
S2140040700434C7E91C3420E0FB68B96F1846FCF727
S21400408055FFB867BB6F012B02D8022387F87F3035
S214004090BB6FB3F1FF3F02D1012387F87F307B6E01
S2140040A09B464FF0000CD7E91C120B461446B3EBA8
S2140040B00B0364EB0C04C7E91C3497F87F30002B25
S2140040C009D17B6E19464FF00002D7E91C34A24294
S2140040D008BF9942D0D3FB68BA6F9A6397F87F30CF
S2140040E0002B38D1D7E91C3440F2FF114FF0000204
S2140040F003EA010B04EA020C5BEA0C032BD07B6993
S214004100B96F1846FCF7F2FE38663B6E002B03D1FB
S214004110022387F87F301EE0D7E91C124FF0000319
S2140041204FF000044B0A43EAC253540A1A463B6E49
S2140041301A44FB68DA637B695878FB6803F1480128
S214004140FB68DA6B012316F0A5FD0346002B02D0B0
S214004150012387F87F3097F87F30002B02D0FB686A
S21400416000221A6097F87F3018468037BD46BDE8B3
S21400417090882DE9904890B000AFF860B9607A60FA
S2140041803B60BB68FB623B6800221A60FB6807F175
S214004190140211461846FFF7FDFC034687F83F3029
S2140041A097F83F30002B08D1FB6893F8293087F842
S2140041B03F3097F83F30002B02D097F83F303DE174
S2140041C0FB6893F8283003F00103002B01D1072386
S2140041D034E1FB68D3E90412FB68D3E90CBC0B4658
S2140041E01446B3EB0B0364EB0C04C7E908347B6896
S2140041F04FF00004D7E90812A24208BF994280F0A7
S21400420018813B6A7B6014E1FB68D3E90CBC40F282
S214004210FF114FF000020BEA01030CEA02042343ED
S21400422040F0CF80FB68D3E90C124FF000034FF04C
S21400423000044B0A43EAC253540A1A467B695B8958
S214004240013B1340FB61FB69002B26D1FB68D3E9D9
S2140042500C34234303D1FB689B68BB6307E0FA6812
S214004260FB689B6B19461046FCF760FEB863BB6B99
S214004270012B05D8FB68022283F829200223DDE003
S214004280BB6BB3F1FF3F05D1FB68012283F8292001
S2140042900123D3E0FB68BA6B9A637A69FB689B6B71
S2140042A019461046FCF722FEB861BB69002B05D103
S2140042B0FB68022283F829200223BFE0BA69FB6963
S2140042C01344BB617B685B0A3B633B6B002B3CD0B3
S2140042D0FA693B6B13447A695289934205D97B6924
S2140042E05B891A46FB69D31A3B637B6958783B6B3C
S2140042F0DBB2BA69F96A16F0CDFC0346002B05D08E
S214004300FB68012283F82920012397E0FB6893F8D5
S21400431028305BB2002B14DAFB68DA6BBB69D31A61
S2140043203A6B9A420DD9FB68DA6BBB69D31A5B020B
S214004330FA6AD018FB6848334FF400721946FCF747
S21400434079FC3B6B5B027B6357E0FB68DB6BBA690F
S2140043509A4233D0FB6893F828305BB2002B1BDA06
S2140043607B695878FB6803F14801FB68DA6B012328
S21400437016F0CEFC0346002B05D0FB68012283F81E
S214004380292001235AE0FB6893F8283003F07F03C6
S214004390DAB2FB6883F828207B695878FB6803F15B
S2140043A048010123BA6916F075FC0346002B05D0B8
S2140043B0FB68012283F8292001233FE0FB68BA69E5
S2140043C0DA63FB68D3E90C34C3F30803C3F5007360
S2140043D07B637A6B7B689A4201D97B687B63FB6858
S2140043E003F14802FB68D3E90C34C3F30803134413
S2140043F07A6B1946F86AFCF71DFCFA6A7B6B134465
S214004400FB62FB68D3E90C127B6B9B464FF0000CFB
S2140044101BEB01034CEB0204FA68C2E90C343B6860
S2140044201A687B6B1A443B681A607A687B6BD31AEF
S2140044307B607B68002B7FF4E7AE0023184640378E
S214004440BD46BDE890882DE990488CB000AFF86076
S214004450B9607A603B60BB68FB613B6800221A600B
S214004460FB6807F1100211461846FFF793FB034658
S21400447087F82F3097F82F30002B08D1FB6893F879
S214004480293087F82F3097F82F30002B02D097F876
S2140044902F307EE1FB6893F8283003F00203002BF0
S2140044A001D1072375E13B691B78042B00F061817D
S2140044B0FB68D3E90C341A467B681A44FB68D3E9D8
S2140044C00C349A4280F05581FB68D3E90C34DB4308
S2140044D07B604EE1FB68D3E90CBC40F2FF114FF065
S2140044E000020BEA01030CEA0204234340F0F180C9
S2140044F0FB68D3E90C124FF000034FF000044B0AA0
S21400450043EAC253540A1A463B695B89013B13408F
S214004510BB61BB69002B3AD1FB68D3E90C3423435B
S2140045200CD1FB689B68BB62BB6A002B0ED1FB6894
S21400453000211846FDF7CBF8B86207E0FA68FB687A
S2140045409B6B19461046FDF7C2F8B862BB6A002B93
S21400455000F01481BB6A012B05D1FB68022283F8A8
S2140045602920022315E1BB6AB3F1FF3F05D1FB68A2
S214004570012283F8292001230BE1FB68BA6A9A63BB
S214004580FB689B68002B02D1FB68BA6A9A60FB68DE
S21400459093F828305BB2002B1BDA3B695878FB682F
S2140045A003F14801FB68DA6B012316F0B1FB034602
S2140045B0002B05D0FB68012283F829200123E8E0C0
S2140045C0FB6893F8283003F07F03DAB2FB6883F8C1
S2140045D028203A69FB689B6B19461046FCF786FC58
S2140045E078617B69002B05D1FB68022283F82920BD
S2140045F00223CEE07A69BB6913447B617B685B0A61
S2140046003B623B6A002B40D0BA693B6A13443A6966
S2140046105289934205D93B695B891A46BB69D31A0E
S2140046203B623B6958783B6ADBB27A69F96916F0F7
S2140046306FFB0346002B05D0FB68012283F8292078
S2140046400123A6E0FB68DA6B7B69D31A3A6A9A42C2
S21400465017D9FB6803F14800FB68DA6B7B69D31A4D
S2140046605B02FA6913444FF400721946FCF7E2FA4B
S214004670FB6893F8283003F07F03DAB2FB6883F810
S21400468028203B6A5B027B6248E0FB68DB6B7A694A
S2140046909A421BD0FB68D3E90C12FB68D3E90434BA
S2140046A0A24208BF994211D23B695878FB6803F1D1
S2140046B0480101237A6916F0EDFA0346002B05D06F
S2140046C0FB68012283F82920012362E0FB687A69EF
S2140046D0DA63FB68D3E90C34C3F30803C3F500734D
S2140046E07B627A6A7B689A4201D97B687B62FB6848
S2140046F003F14802FB68D3E90C34C3F30803134400
S2140047007A6AF9691846FCF795FAFB6893F8283038
S21400471063F07F03DAB2FB6883F82820FA697B6AC5
S2140047201344FB61FB68D3E90C127B6A9B464FF08F
S214004730000C1BEB01034CEB0204FA68C2E90C34D4
S214004740FB68D3E90434FA68D2E90C12944208BF35
S2140047508B4201D20B461446FA68C2E904343B6821
S2140047601A687B6A1A443B681A607A687B6AD31AAE
S2140047707B607B68002B7FF4ADAE00E000BFFB687B
S21400478093F8283043F04003DAB2FB6883F8282019
S214004790002318463037BD46BDE8908890B599B0DE
S2140047A000AF78607B6807F1500211461846FFF7A5
S2140047B0F1F9034687F85F3097F85F30002B40F03A
S2140047C0FA807B6893F8283003F04003002B00F053
S2140047D0F2807B6893F828305BB2002B17DA3B6DCB
S2140047E058787B6803F148017B68DA6B012316F082
S2140047F08FFA0346002B01D00123DEE07B6893F896
S214004800283003F07F03DAB27B6883F8282016F09E
S214004810DDFEB8653B6D1B78042B40F081807B681D
S2140048201846FCF771FE034687F85F3097F85F304E
S214004830002B40F0C0807A6807F10803114618463E
S214004840FDF787FD034687F85F3097F85F30002B4B
S21400485040F0B1803B6D1B6904331A783B6D1B69D1
S214004860043342F02002D2B21A707B68DA793B6DCC
S2140048701B69213342F00102D2B21A703B6D1B69EC
S21400488003F134027B689B6819461046FCF71FF953
S2140048903B6D1B6903F138017B68D3E904341A4683
S2140048A023460846FCF73FF93B6D1B6903F12801D8
S2140048B07B68D3E904341A4623460846FCF733F9E6
S2140048C03B6D1B690C33B96D1846FCF700F93B6D60
S2140048D01B69153300221A703B6D1B6910330021CB
S2140048E01846FCF7F4F807F108031846FDF76EFDC6
S2140048F0034687F85F3097F85F30002B5BD13B6D3F
S2140049001846FCF785FA034687F85F307B6893F80D
S214004910283023F04003DAB27B6883F828204AE088
S2140049203A6D7B681B6C19461046FCF744FA034642
S21400493087F85F3097F85F30002B3CD17B685B6C64
S2140049407B657B6D0B331A787B6D0B3342F0200250
S214004950D2B21A707B6818687B689B681A46796DB5
S214004960FDF76EF97B6D03F11C027B68D3E9043416
S21400497019461046FCF7ABF87B6D1633B96D184632
S214004980FCF7A5F87B6D123300211846FCF784F877
S2140049903B6D0122DA703B6D1846FCF739FA034688
S2140049A087F85F307B6893F8283023F04003DAB24C
S2140049B07B6883F8282097F85F3018466437BD4632
S2140049C090BD80B584B000AF78607868FFF7E6FEEB
S2140049D00346FB73FB7B002B0ED17B6807F10802B6
S2140049E011461846FFF7D6F80346FB73FB7B002BF1
S2140049F002D17B6800221A60FB7B18461037BD4642
S214004A0080BDF0B58DB000AFF860C7E90023FB6845
S214004A1007F1100211461846FFF7BCF8034687F860
S214004A202F3097F82F30002B08D1FB6893F82930E9
S214004A3087F82F3097F82F30002B02D097F82F30BA
S214004A40C0E13B691B78042B0BD0D7E90034012C5E
S214004A5008BF002B05D34FF0FF334FF00004C7E923
S214004A600034FB68D3E90412D7E90034A24208BF39
S214004A7099420BD2FB6893F8283003F00203002B10
S214004A8004D1FB68D3E90434C7E90034FB68D3E9F2
S214004A900C34C7E9063400237B62FA684FF0000343
S214004AA04FF00004C2E90C34D7E90034234300F089
S214004AB025813B695B895B027B61D7E9063423432A
S214004AC048D0D7E9003413F1FF3044F1FF317B6959
S214004AD04FF000041A4623461DF092FC03460C468F
S214004AE01D462646D7E9063413F1FF3044F1FF3160
S214004AF07B694FF000041A4623461DF081FC0346EE
S214004B000C46A64208BF9D4224D3D7E9063413F1CB
S214004B10FF3144F1FF327B69013B4FF000046FEA3E
S214004B2003056FEA040605EA010306EA0204FA68CA
S214004B30C2E90C34FB68D3E90C56D7E900120B46E1
S214004B4014465B1B64EB0604C7E90034FB689B6BEA
S214004B50BB6224E0FB689B68BB62BB6A002B1BD170
S214004B60FB6800211846FCF7B2FDB862BB6A012B51
S214004B7005D1FB68022283F82920022322E1BB6AC2
S214004B80B3F1FF3F05D1FB68012283F829200123FA
S214004B9018E1FB68BA6A9A60FB68BA6A9A63BB6AED
S214004BA0002B00F0AB806AE07B691D464FF00006E4
S214004BB0D7E900120B4614465B1B64EB0604C7E9F4
S214004BC00034FB68D3E90C127B691D464FF00006E3
S214004BD06B1846EB0204FA68C2E90C34FB6893F8DB
S214004BE0283003F00203002B28D0FB68D3E90C34EE
S214004BF0FA68D2E90412A24208BF99420ED2FB68B4
S214004C00D3E90C34FA68C2E90434FB6893F8283018
S214004C1043F04003DAB2FB6883F82820FB68B96AE1
S214004C201846FCF754FDB862BB6A002B0CD14FF057
S214004C3000034FF00004C7E900342AE0FB68B96AB5
S214004C401846FCF773F9B862BB6AB3F1FF3F05D1AB
S214004C50FB68012283F829200123B3E0BB6A012BFD
S214004C6004D93B69DB69BA6A9A4205D3FB6802221B
S214004C7083F829200223A5E0FB68BA6A9A637B6959
S214004C8019464FF00002D7E90034A24208BF994205
S214004C908AD3FB68D3E90C12D7E900345D1844EBDD
S214004CA00206FA68C2E90C56D7E9003440F2FF1152
S214004CB04FF0000203EA010504EA020655EA06037D
S214004CC01CD03B69B96A1846FCF710F978627B6A13
S214004CD0002B05D1FB68022283F82920022371E00D
S214004CE0D7E900124FF000034FF000044B0A43EAE6
S214004CF0C253540A1A467B6A13447B62FB68D3E9A4
S214004D000C34FA68D2E90412A24208BF99420ED2C5
S214004D10FB68D3E90C34FA68C2E90434FB6893F8FC
S214004D20283043F04003DAB2FB6883F82820FB689B
S214004D30D3E90C5640F2FF114FF0000205EA0103DA
S214004D4006EA020423433BD0FB68DB6B7A6A9A428E
S214004D5036D0FB6893F828305BB2002B1BDA3B6931
S214004D605878FB6803F14801FB68DA6B012315F0FD
S214004D70CFFF0346002B05D0FB68012283F82920CD
S214004D8001231FE0FB6893F8283003F07F03DAB2B4
S214004D90FB6883F828203B695878FB6803F14801D4
S214004DA001237A6A15F076FF0346002B05D0FB68D0
S214004DB0012283F82920012304E0FB687A6ADA637B
S214004DC097F82F3018463437BD46F0BD90B587B0FB
S214004DD000AF786039607B68002B01D1092380E042
S214004DE07B683B6107F10C013B4600221846FEF744
S214004DF081FB0346FB75FB7D002B6BD1FA683B6994
S214004E001A603B6819467868FEF726FA0346FB7573
S214004E10FB7D002B59D17B6893F843305BB2002BA7
S214004E2046DB3B699B7903F01003002B3ED0FB6802
S214004E301B78042B2FD13B699A683B69DA613B6982
S214004E40D3E9043423F0FF033A69D2791A433B6965
S214004E501A627B685A6C3B695A62FB681B6934337A
S214004E601846FBF739FD02463B699A60FB681B69EA
S214004E7038331846FBF753FD03460C463A69C2E939
S214004E800434FB681B6921331B7803F00203DAB293
S214004E903B69DA710CE0FA687B685B6B1946104672
S214004EA0FCF7AFFE02463B699A6001E00523FB75FE
S214004EB0FB7D002B09D1FB68DA883B699A800021CC
S214004EC07868FCF7E7FC0346FB75FB7D042B01D1F5
S214004ED00523FB75FB7D002B02D03B6900221A6080
S214004EE0FB7D18461C37BD4690BD80B584B000AF2C
S214004EF078607B6807F1080211461846FEF74AFEFE
S214004F000346FB73FB7B002B02D17B6800221A60F2
S214004F10FB7B18461037BD4680BD80B584B000AF19
S214004F20786039607B6807F1080211461846FEF77C
S214004F3031FE0346FB73FB7B002B26D13B68002B20
S214004F4006D100217868FCF7A5FC0346FB731CE03D
S214004F5000217868FDF7FCFA0346FB73FB7B042B05
S214004F6001D10023FB73FB7B002B0ED139687868D8
S214004F70FDF7D6FE00217868FCF712FD0346FB73AA
S214004F80FB7B042B01D10023FB73FB7B18461037F9
S214004F90BD4680BD90B5B5B000AF78600023C7F8B9
S214004FA0C83007F134013B1D02221846FEF7A2FA6C
S214004FB0034687F8CF307B6BC7F8803097F8CF3042
S214004FC0002B40F0B6807A6807F180031146184639
S214004FD0FEF742F9034687F8CF3097F8CF30002B1C
S214004FE040F0A78097F8C3305BB2002B03DA0623A5
S214004FF087F8CF3008E097F8863003F00103002BDF
S21400500002D0072387F8CF3097F8CF30002B66D131
S2140050107B6BBB607B6B1B78042B1DD17B6B1B698A
S21400502034331846FBF758FCC7F8C800D7F8C83022
S2140050303B617B6B1B6938331846FBF770FC0346F5
S2140050400C46C7E906347B6B1B6921331B7803F0DB
S2140050500203DBB2FB7308E07B6BD7F8B420114683
S2140050601846FCF7CEFDC7F8C80097F8863003F060
S2140050701003002B33D07B6BBB63D7F8C8303B6480
S2140050807B6B1B78042B06D1D7E90634C7E91234AC
S214005090FB7B87F83F3007F1380300211846FCF702
S2140050A0F9FB034687F8CF3097F8CF30002B16D1A0
S2140050B007F1380300211846FDF74AFA034687F839
S2140050C0CF3097F8CF30002B02D1072387F8CF30A8
S2140050D097F8CF30042B02D1002387F8CF3097F80B
S2140050E0CF30002B25D107F180031846FDF7C0FD11
S2140050F0034687F8CF3097F8CF30002B0ED1D7F87D
S214005100C830002B0AD007F108030022D7F8C810D1
S2140051101846FCF728FA034687F8CF3097F8CF30C2
S214005120002B06D17B6B1846FBF772FE034687F80A
S214005130CF3097F8CF301846D437BD4690BD000024
S21400514080B485B000AF03463960FB80FB887F2BB8
S21400515002D8FB88FB8125E03B68002B0BD0FB8840
S214005160FF2B05D8FB88803B124A32F8133000E04C
S2140051700023FB8116E00023FB8109E0FB890D4A32
S21400518032F81330FA889A4206D0FB890133FB8145
S214005190FB897F2BF2D900E000BFFB8980339BB2EE
S2140051A0DBB2FB81FB8918461437BD465DF8047BED
S2140051B0704700BF0086020080B487B000AF034689
S2140051C0FB80FB88B3F5805F01D23E4B00E03E4B90
S2140051D07B617B699A1C7A611B887B827B8A002BA9
S2140051E068D0FA887B8A9A4264D37B699A1C7A6173
S2140051F01B883B823B8A1B0AFB813B8ADBB23B82D5
S214005200FA88798A3B8A0B449A4249DAFB89082B4A
S2140052104FD801A252F823F03D5200004F52000032
S214005220655200006D520000755200007D5200006D
S214005230855200008D52000095520000FA887B8A45
S214005240D31A5B007A6913441B88FB8027E0FA8830
S2140052507B8AD31A9BB203F001039BB2FA88D31A57
S214005260FB801CE0FB88103BFB8018E0FB88203BA3
S214005270FB8014E0FB88303BFB8010E0FB881A3B89
S214005280FB800CE0FB880833FB8008E0FB88503B83
S214005290FB8004E0FB88A3F5E353FB8000BF08E037
S2140052A0FB89002B95D13B8A5B007A6913447B61AE
S2140052B08FE700BFFB8818461C37BD465DF8047BA9
S2140052C0704700BF00870200F4880200B0B586B0C1
S2140052D000AF78607B68002B01D102F0BDF87C4BF4
S2140052E01B7A012B0CD17B6808221A707B68794ADE
S2140052F05A607B68D3229A607B68774ADA60FEE75A
S214005300734B1B7AFF2B0CD17B6808221A707B68C4
S214005310704A5A607B68D4229A607B686E4ADA606C
S214005320FEE76B4B1A686A4B5B7A013319461046E8
S21400533001F019F93861664B5A68654B9B7A013360
S2140053401946104601F00FF9F860614B5B7A1A4671
S2140053503B6993420CD97B6808221A707B685D4AC9
S2140053605A607B68D9229A607B685B4ADA60FEE7FF
S214005370574B9B7A1A46FB6893420CD97B680822E7
S2140053801A707B68534A5A607B68DA229A607B6898
S214005390514ADA60FEE74E4BD9687B680C224F48CC
S2140053A000F07CFC02464E4B1A607B681B78002B94
S2140053B040F083804A4B1B6801221A60444BD96830
S2140053C0434B1B7A1A4613465B0013449B001A464F
S2140053D0434B1C687B68434800F060FC0346A360B0
S2140053E07B681B78002B6AD10023FB7536E0384BB0
S2140053F0D868374B5B7A1D46394B1B689968FA7D2F
S21400540013465B0013449B00CC187B682A46014673
S214005410354800F043FC034623607B681B78002B6E
S2140054204FD12B4BD8682A4B9B7A1D462C4B1B68BA
S2140054309968FA7D13465B0013449B00CC187B6882
S2140054402A460146294800F029FC0346A3607B68EB
S2140054501B78002B37D1FB7D0133FB751C4B1B7A69
S214005460FA7D9A42C3D31E4B1B689B681868184B7C
S2140054701B683A69194601F0A9F8194B1B689B6826
S2140054809868134B5B68FA68194601F09FF8144B4E
S2140054901B689B684FF000425A60114B1B689B6864
S2140054A01B68134A13600E4B1C687A68002111486B
S2140054B000F0E2F8606000BF06E000BF04E000BF56
S2140054C002E000BF00E000BF1837BD46B0BD00BF19
S2140054D010000020B8890200AC8A0200448A02004C
S2140054E0F40B0020508A0200688A0200848A0200B8
S2140054F0F00B0020A08A020080B483B000AF786072
S2140055007B6800221A6000BF0C37BD465DF8047B3E
S2140055107047000080B582B000AF7860104B012263
S2140055201A707B68002B01D101F096FF7B68002281
S2140055301A707B680B4A5A607B68B3229A607B6855
S214005540094ADA6000F0D6FA00F0CCFA786801F082
S21400555093F97B681B78002B0837BD4680BD00BFDB
S214005560F80B0020B88A0200488B020080B400AF17
S214005570034B1B681846BD465DF8047B704700BFAA
S214005580FC0B002080B485B000AF03460A46FB71D2
S2140055901346BB710023FB73FB79162B63D801A25D
S2140055A052F823F001560000075600000D56000082
S2140055B00D5600000D560000135600001956000048
S2140055C019560000195600001F5600002556000008
S2140055D02B560000315600003756000037560000A4
S2140055E037560000495600004F560000555600003A
S2140055F05B5600003D560000435600006156000012
S2140056000123FB7330E00123FB732DE00123FB73C2
S2140056102AE00123FB7327E00123FB7324E0012328
S214005620FB7321E00123FB731EE00123FB731BE0E9
S2140056300123FB7318E00123FB7315E00123FB73C2
S21400564012E00123FB730FE00123FB730CE0012340
S214005650FB7309E00123FB7306E00123FB7303E001
S2140056600123FB7300E000BFFB7B18461437BD46E2
S2140056705DF8047B704700BF80B58CB000AFF86063
S214005680B9607A6000237B627B68002B01D101F051
S214005690E3FE274B1B68002B08D1786800F020F942
S2140056A07B681B78002B01D07B6A3DE0204B1B6893
S2140056B07968184600F0A6FBB8627B681B78002B5A
S2140056C001D07B6A30E0BB6A7A68F968184607F052
S2140056D079FC7B681B78002B17D1BB68002B09D0A0
S2140056E0BB681B7803F00103002B03D0012387F867
S2140056F02F3002E0002387F82F30BB6A97F82F2060
S21400570083F83020BB6A7B620DE0094B1B681846A5
S21400571007F114031A46B96A00F046FC3B7D002BDD
S21400572001D001F099FE7B6A18463037BD4680BD31
S214005730000C002080B58EB002AFF8607A603B6047
S2140057400B46FB723B68002B01D101F085FEFB681F
S214005750002293420DD13B680A221A703B68344AF5
S2140057605A603B684FF433729A603B68314ADA609D
S214005770FEE7FB7A03F0FE03002B0DD03B68082201
S2140057801A703B682A4A5A603B6840F2CE229A60FA
S2140057903B68284ADA60FEE77B68002B04D078680E
S2140057A000F072F9F86201E00023FB6200237B85BB
S2140057B0FB7A03F00103002B05D07B8D6FEA434391
S2140057C06FEA53437B85FB687B62786A7A8D3B6819
S2140057D000930023F96A07F05BFC3B681B78232BD9
S2140057E021D17B6A93F8303003F00103002B0DD0F3
S2140057F03B6800221A703B680D4A5A603B6840F2CC
S214005800EB229A603B680B4ADA600DE07B6A07F190
S21400581014020021184607F0EFFD3B7D232B03D032
S21400582001F01AFE00E000BF00BF3037BD4680BD65
S214005830548B0200708C020080B584B000AF786094
S21400584039603B68002B01D101F006FE7B68002220
S21400585093420DD13B680A221A703B68174A5A6079
S2140058603B6840F21A329A603B68154ADA60FEE7F7
S2140058707B68FB60FB683A680021184607F0BCFDB1
S2140058803B681B78232B14D1FB6893F8303003F069
S2140058900103002B0ED03B6800221A703B68074AB3
S2140058A05A603B6840F226329A603B68044ADA60E7
S2140058B000E000BF00BF1037BD4680BD548B02001D
